{
  "_format": "hh-sol-artifact-1",
  "contractName": "RebaseToken",
  "sourceName": "contracts/RebaseToken.sol",
  "abi": [
    {
      "inputs": [
        {
          "internalType": "string",
          "name": "_name",
          "type": "string"
        },
        {
          "internalType": "string",
          "name": "_symbol",
          "type": "string"
        }
      ],
      "stateMutability": "nonpayable",
      "type": "constructor"
    },
    {
      "anonymous": false,
      "inputs": [
        {
          "indexed": true,
          "internalType": "address",
          "name": "owner",
          "type": "address"
        },
        {
          "indexed": true,
          "internalType": "address",
          "name": "spender",
          "type": "address"
        },
        {
          "indexed": false,
          "internalType": "uint256",
          "name": "value",
          "type": "uint256"
        }
      ],
      "name": "Approval",
      "type": "event"
    },
    {
      "anonymous": false,
      "inputs": [
        {
          "indexed": true,
          "internalType": "address",
          "name": "previousOwner",
          "type": "address"
        },
        {
          "indexed": true,
          "internalType": "address",
          "name": "newOwner",
          "type": "address"
        }
      ],
      "name": "OwnershipTransferred",
      "type": "event"
    },
    {
      "anonymous": false,
      "inputs": [
        {
          "indexed": false,
          "internalType": "uint256",
          "name": "newSupply",
          "type": "uint256"
        },
        {
          "indexed": false,
          "internalType": "uint256",
          "name": "oldSupply",
          "type": "uint256"
        }
      ],
      "name": "Rebase",
      "type": "event"
    },
    {
      "anonymous": false,
      "inputs": [
        {
          "indexed": true,
          "internalType": "address",
          "name": "from",
          "type": "address"
        },
        {
          "indexed": true,
          "internalType": "address",
          "name": "to",
          "type": "address"
        },
        {
          "indexed": false,
          "internalType": "uint256",
          "name": "value",
          "type": "uint256"
        }
      ],
      "name": "Transfer",
      "type": "event"
    },
    {
      "inputs": [
        {
          "internalType": "address",
          "name": "owner",
          "type": "address"
        },
        {
          "internalType": "address",
          "name": "spender",
          "type": "address"
        }
      ],
      "name": "allowance",
      "outputs": [
        {
          "internalType": "uint256",
          "name": "",
          "type": "uint256"
        }
      ],
      "stateMutability": "view",
      "type": "function"
    },
    {
      "inputs": [
        {
          "internalType": "address",
          "name": "spender",
          "type": "address"
        },
        {
          "internalType": "uint256",
          "name": "amount",
          "type": "uint256"
        }
      ],
      "name": "approve",
      "outputs": [
        {
          "internalType": "bool",
          "name": "",
          "type": "bool"
        }
      ],
      "stateMutability": "nonpayable",
      "type": "function"
    },
    {
      "inputs": [
        {
          "internalType": "address",
          "name": "account",
          "type": "address"
        }
      ],
      "name": "balanceOf",
      "outputs": [
        {
          "internalType": "uint256",
          "name": "",
          "type": "uint256"
        }
      ],
      "stateMutability": "view",
      "type": "function"
    },
    {
      "inputs": [],
      "name": "decimals",
      "outputs": [
        {
          "internalType": "uint8",
          "name": "",
          "type": "uint8"
        }
      ],
      "stateMutability": "view",
      "type": "function"
    },
    {
      "inputs": [
        {
          "internalType": "address",
          "name": "spender",
          "type": "address"
        },
        {
          "internalType": "uint256",
          "name": "subtractedValue",
          "type": "uint256"
        }
      ],
      "name": "decreaseAllowance",
      "outputs": [
        {
          "internalType": "bool",
          "name": "",
          "type": "bool"
        }
      ],
      "stateMutability": "nonpayable",
      "type": "function"
    },
    {
      "inputs": [],
      "name": "getRebaseRatio",
      "outputs": [
        {
          "internalType": "uint256",
          "name": "",
          "type": "uint256"
        }
      ],
      "stateMutability": "view",
      "type": "function"
    },
    {
      "inputs": [
        {
          "internalType": "address",
          "name": "spender",
          "type": "address"
        },
        {
          "internalType": "uint256",
          "name": "addedValue",
          "type": "uint256"
        }
      ],
      "name": "increaseAllowance",
      "outputs": [
        {
          "internalType": "bool",
          "name": "",
          "type": "bool"
        }
      ],
      "stateMutability": "nonpayable",
      "type": "function"
    },
    {
      "inputs": [],
      "name": "name",
      "outputs": [
        {
          "internalType": "string",
          "name": "",
          "type": "string"
        }
      ],
      "stateMutability": "view",
      "type": "function"
    },
    {
      "inputs": [],
      "name": "owner",
      "outputs": [
        {
          "internalType": "address",
          "name": "",
          "type": "address"
        }
      ],
      "stateMutability": "view",
      "type": "function"
    },
    {
      "inputs": [
        {
          "internalType": "int256",
          "name": "percentage",
          "type": "int256"
        }
      ],
      "name": "rebase",
      "outputs": [],
      "stateMutability": "nonpayable",
      "type": "function"
    },
    {
      "inputs": [],
      "name": "renounceOwnership",
      "outputs": [],
      "stateMutability": "nonpayable",
      "type": "function"
    },
    {
      "inputs": [
        {
          "internalType": "uint256",
          "name": "_rebaseRatio",
          "type": "uint256"
        }
      ],
      "name": "setRebaseRatio",
      "outputs": [
        {
          "internalType": "bool",
          "name": "success",
          "type": "bool"
        }
      ],
      "stateMutability": "nonpayable",
      "type": "function"
    },
    {
      "inputs": [],
      "name": "symbol",
      "outputs": [
        {
          "internalType": "string",
          "name": "",
          "type": "string"
        }
      ],
      "stateMutability": "view",
      "type": "function"
    },
    {
      "inputs": [],
      "name": "totalSupply",
      "outputs": [
        {
          "internalType": "uint256",
          "name": "",
          "type": "uint256"
        }
      ],
      "stateMutability": "view",
      "type": "function"
    },
    {
      "inputs": [
        {
          "internalType": "address",
          "name": "to",
          "type": "address"
        },
        {
          "internalType": "uint256",
          "name": "amount",
          "type": "uint256"
        }
      ],
      "name": "transfer",
      "outputs": [
        {
          "internalType": "bool",
          "name": "",
          "type": "bool"
        }
      ],
      "stateMutability": "nonpayable",
      "type": "function"
    },
    {
      "inputs": [
        {
          "internalType": "address",
          "name": "from",
          "type": "address"
        },
        {
          "internalType": "address",
          "name": "to",
          "type": "address"
        },
        {
          "internalType": "uint256",
          "name": "amount",
          "type": "uint256"
        }
      ],
      "name": "transferFrom",
      "outputs": [
        {
          "internalType": "bool",
          "name": "",
          "type": "bool"
        }
      ],
      "stateMutability": "nonpayable",
      "type": "function"
    },
    {
      "inputs": [
        {
          "internalType": "address",
          "name": "newOwner",
          "type": "address"
        }
      ],
      "name": "transferOwnership",
      "outputs": [],
      "stateMutability": "nonpayable",
      "type": "function"
    }
  ],
  "bytecode": "0x6080604052633b9aca006006553480156200001957600080fd5b50604051620026323803806200263283398181016040528101906200003f9190620004c6565b8181816003908162000052919062000796565b50806004908162000064919062000796565b505050620000876200007b620000cf60201b60201c565b620000d760201b60201c565b620000c7336200009c6200019d60201b60201c565b600a620000aa919062000a0d565b633b9aca00620000bb919062000a5e565b620001a660201b60201c565b505062000b95565b600033905090565b6000600560009054906101000a900473ffffffffffffffffffffffffffffffffffffffff16905081600560006101000a81548173ffffffffffffffffffffffffffffffffffffffff021916908373ffffffffffffffffffffffffffffffffffffffff1602179055508173ffffffffffffffffffffffffffffffffffffffff168173ffffffffffffffffffffffffffffffffffffffff167f8be0079c531659141344cd1fd0a4f28419497f9722a3daafe3b4186f6b6457e060405160405180910390a35050565b60006012905090565b600073ffffffffffffffffffffffffffffffffffffffff168273ffffffffffffffffffffffffffffffffffffffff160362000218576040517f08c379a00000000000000000000000000000000000000000000000000000000081526004016200020f9062000b0a565b60405180910390fd5b6200022c600083836200032960201b60201c565b6000600654826200023e919062000a5e565b9050806008600082825462000254919062000b2c565b9250508190555080600760008573ffffffffffffffffffffffffffffffffffffffff1673ffffffffffffffffffffffffffffffffffffffff168152602001908152602001600020600082825401925050819055508273ffffffffffffffffffffffffffffffffffffffff16600073ffffffffffffffffffffffffffffffffffffffff167fddf252ad1be2c89b69c2b068fc378daa952ba7f163c4a11628f55a4df523b3ef8460405162000308919062000b78565b60405180910390a362000324600084846200032e60201b60201c565b505050565b505050565b505050565b6000604051905090565b600080fd5b600080fd5b600080fd5b600080fd5b6000601f19601f8301169050919050565b7f4e487b7100000000000000000000000000000000000000000000000000000000600052604160045260246000fd5b6200039c8262000351565b810181811067ffffffffffffffff82111715620003be57620003bd62000362565b5b80604052505050565b6000620003d362000333565b9050620003e1828262000391565b919050565b600067ffffffffffffffff82111562000404576200040362000362565b5b6200040f8262000351565b9050602081019050919050565b60005b838110156200043c5780820151818401526020810190506200041f565b60008484015250505050565b60006200045f6200045984620003e6565b620003c7565b9050828152602081018484840111156200047e576200047d6200034c565b5b6200048b8482856200041c565b509392505050565b600082601f830112620004ab57620004aa62000347565b5b8151620004bd84826020860162000448565b91505092915050565b60008060408385031215620004e057620004df6200033d565b5b600083015167ffffffffffffffff81111562000501576200050062000342565b5b6200050f8582860162000493565b925050602083015167ffffffffffffffff81111562000533576200053262000342565b5b620005418582860162000493565b9150509250929050565b600081519050919050565b7f4e487b7100000000000000000000000000000000000000000000000000000000600052602260045260246000fd5b600060028204905060018216806200059e57607f821691505b602082108103620005b457620005b362000556565b5b50919050565b60008190508160005260206000209050919050565b60006020601f8301049050919050565b600082821b905092915050565b6000600883026200061e7fffffffffffffffffffffffffffffffffffffffffffffffffffffffffffffffff82620005df565b6200062a8683620005df565b95508019841693508086168417925050509392505050565b6000819050919050565b6000819050919050565b600062000677620006716200066b8462000642565b6200064c565b62000642565b9050919050565b6000819050919050565b620006938362000656565b620006ab620006a2826200067e565b848454620005ec565b825550505050565b600090565b620006c2620006b3565b620006cf81848462000688565b505050565b5b81811015620006f757620006eb600082620006b8565b600181019050620006d5565b5050565b601f82111562000746576200071081620005ba565b6200071b84620005cf565b810160208510156200072b578190505b620007436200073a85620005cf565b830182620006d4565b50505b505050565b600082821c905092915050565b60006200076b600019846008026200074b565b1980831691505092915050565b600062000786838362000758565b9150826002028217905092915050565b620007a1826200054b565b67ffffffffffffffff811115620007bd57620007bc62000362565b5b620007c9825462000585565b620007d6828285620006fb565b600060209050601f8311600181146200080e5760008415620007f9578287015190505b62000805858262000778565b86555062000875565b601f1984166200081e86620005ba565b60005b82811015620008485784890151825560018201915060208501945060208101905062000821565b8683101562000868578489015162000864601f89168262000758565b8355505b6001600288020188555050505b505050505050565b7f4e487b7100000000000000000000000000000000000000000000000000000000600052601160045260246000fd5b60008160011c9050919050565b6000808291508390505b60018511156200090b57808604811115620008e357620008e26200087d565b5b6001851615620008f35780820291505b80810290506200090385620008ac565b9450620008c3565b94509492505050565b600082620009265760019050620009f9565b81620009365760009050620009f9565b81600181146200094f57600281146200095a5762000990565b6001915050620009f9565b60ff8411156200096f576200096e6200087d565b5b8360020a9150848211156200098957620009886200087d565b5b50620009f9565b5060208310610133831016604e8410600b8410161715620009ca5782820a905083811115620009c457620009c36200087d565b5b620009f9565b620009d98484846001620008b9565b92509050818404811115620009f357620009f26200087d565b5b81810290505b9392505050565b600060ff82169050919050565b600062000a1a8262000642565b915062000a278362000a00565b925062000a567fffffffffffffffffffffffffffffffffffffffffffffffffffffffffffffffff848462000914565b905092915050565b600062000a6b8262000642565b915062000a788362000642565b925082820262000a888162000642565b9150828204841483151762000aa25762000aa16200087d565b5b5092915050565b600082825260208201905092915050565b7f45524332303a206d696e7420746f20746865207a65726f206164647265737300600082015250565b600062000af2601f8362000aa9565b915062000aff8262000aba565b602082019050919050565b6000602082019050818103600083015262000b258162000ae3565b9050919050565b600062000b398262000642565b915062000b468362000642565b925082820190508082111562000b615762000b606200087d565b5b92915050565b62000b728162000642565b82525050565b600060208201905062000b8f600083018462000b67565b92915050565b611a8d8062000ba56000396000f3fe608060405234801561001057600080fd5b506004361061010b5760003560e01c8063715018a6116100a2578063a457c2d711610071578063a457c2d7146102bc578063a9059cbb146102ec578063dd62ed3e1461031c578063df0b7e391461034c578063f2fde38b1461036a5761010b565b8063715018a6146102465780638da5cb5b1461025057806395d89b411461026e578063a2b50fef1461028c5761010b565b806323b872dd116100de57806323b872dd14610198578063313ce567146101c857806339509351146101e657806370a08231146102165761010b565b806306fdde0314610110578063095ea7b31461012e5780630ab114f91461015e57806318160ddd1461017a575b600080fd5b610118610386565b6040516101259190610f96565b60405180910390f35b61014860048036038101906101439190611051565b610418565b60405161015591906110ac565b60405180910390f35b610178600480360381019061017391906110fd565b61043b565b005b61018261055b565b60405161018f9190611139565b60405180910390f35b6101b260048036038101906101ad9190611154565b610572565b6040516101bf91906110ac565b60405180910390f35b6101d06105a1565b6040516101dd91906111c3565b60405180910390f35b61020060048036038101906101fb9190611051565b6105aa565b60405161020d91906110ac565b60405180910390f35b610230600480360381019061022b91906111de565b6105e1565b60405161023d9190611139565b60405180910390f35b61024e610637565b005b61025861064b565b604051610265919061121a565b60405180910390f35b610276610675565b6040516102839190610f96565b60405180910390f35b6102a660048036038101906102a19190611235565b610707565b6040516102b391906110ac565b60405180910390f35b6102d660048036038101906102d19190611051565b610721565b6040516102e391906110ac565b60405180910390f35b61030660048036038101906103019190611051565b610798565b60405161031391906110ac565b60405180910390f35b61033660048036038101906103319190611262565b6107bb565b6040516103439190611139565b60405180910390f35b610354610842565b6040516103619190611139565b60405180910390f35b610384600480360381019061037f91906111de565b61084c565b005b606060038054610395906112d1565b80601f01602080910402602001604051908101604052809291908181526020018280546103c1906112d1565b801561040e5780601f106103e35761010080835404028352916020019161040e565b820191906000526020600020905b8154815290600101906020018083116103f157829003601f168201915b5050505050905090565b6000806104236108cf565b90506104308185856108d7565b600191505092915050565b610443610aa0565b60008103610486576040517f08c379a000000000000000000000000000000000000000000000000000000000815260040161047d9061134e565b60405180910390fd5b7fffffffffffffffffffffffffffffffffffffffffffffffffffffffffffffff9c81136104e8576040517f08c379a00000000000000000000000000000000000000000000000000000000081526004016104df906113e0565b60405180910390fd5b600081121561052b576064816104fd9061142f565b60646105099190611477565b60065461051691906114ab565b610520919061151c565b600681905550610558565b606481606461053a919061154d565b60065461054791906114ab565b610551919061151c565b6006819055505b50565b600060065460085461056d919061151c565b905090565b60008061057d6108cf565b905061058a858285610b1e565b610595858585610baa565b60019150509392505050565b60006012905090565b6000806105b56108cf565b90506105d68185856105c785896107bb565b6105d1919061154d565b6108d7565b600191505092915050565b6000600654600760008473ffffffffffffffffffffffffffffffffffffffff1673ffffffffffffffffffffffffffffffffffffffff16815260200190815260200160002054610630919061151c565b9050919050565b61063f610aa0565b6106496000610e36565b565b6000600560009054906101000a900473ffffffffffffffffffffffffffffffffffffffff16905090565b606060048054610684906112d1565b80601f01602080910402602001604051908101604052809291908181526020018280546106b0906112d1565b80156106fd5780601f106106d2576101008083540402835291602001916106fd565b820191906000526020600020905b8154815290600101906020018083116106e057829003601f168201915b5050505050905090565b6000610711610aa0565b8160068190555060019050919050565b60008061072c6108cf565b9050600061073a82866107bb565b90508381101561077f576040517f08c379a0000000000000000000000000000000000000000000000000000000008152600401610776906115f3565b60405180910390fd5b61078c82868684036108d7565b60019250505092915050565b6000806107a36108cf565b90506107b0818585610baa565b600191505092915050565b6000600160008473ffffffffffffffffffffffffffffffffffffffff1673ffffffffffffffffffffffffffffffffffffffff16815260200190815260200160002060008373ffffffffffffffffffffffffffffffffffffffff1673ffffffffffffffffffffffffffffffffffffffff16815260200190815260200160002054905092915050565b6000600654905090565b610854610aa0565b600073ffffffffffffffffffffffffffffffffffffffff168173ffffffffffffffffffffffffffffffffffffffff16036108c3576040517f08c379a00000000000000000000000000000000000000000000000000000000081526004016108ba90611685565b60405180910390fd5b6108cc81610e36565b50565b600033905090565b600073ffffffffffffffffffffffffffffffffffffffff168373ffffffffffffffffffffffffffffffffffffffff1603610946576040517f08c379a000000000000000000000000000000000000000000000000000000000815260040161093d90611717565b60405180910390fd5b600073ffffffffffffffffffffffffffffffffffffffff168273ffffffffffffffffffffffffffffffffffffffff16036109b5576040517f08c379a00000000000000000000000000000000000000000000000000000000081526004016109ac906117a9565b60405180910390fd5b80600160008573ffffffffffffffffffffffffffffffffffffffff1673ffffffffffffffffffffffffffffffffffffffff16815260200190815260200160002060008473ffffffffffffffffffffffffffffffffffffffff1673ffffffffffffffffffffffffffffffffffffffff168152602001908152602001600020819055508173ffffffffffffffffffffffffffffffffffffffff168373ffffffffffffffffffffffffffffffffffffffff167f8c5be1e5ebec7d5bd14f71427d1e84f3dd0314c0f7b2291e5b200ac8c7c3b92583604051610a939190611139565b60405180910390a3505050565b610aa86108cf565b73ffffffffffffffffffffffffffffffffffffffff16610ac661064b565b73ffffffffffffffffffffffffffffffffffffffff1614610b1c576040517f08c379a0000000000000000000000000000000000000000000000000000000008152600401610b1390611815565b60405180910390fd5b565b6000610b2a84846107bb565b90507fffffffffffffffffffffffffffffffffffffffffffffffffffffffffffffffff8114610ba45781811015610b96576040517f08c379a0000000000000000000000000000000000000000000000000000000008152600401610b8d90611881565b60405180910390fd5b610ba384848484036108d7565b5b50505050565b600073ffffffffffffffffffffffffffffffffffffffff168373ffffffffffffffffffffffffffffffffffffffff1603610c19576040517f08c379a0000000000000000000000000000000000000000000000000000000008152600401610c1090611913565b60405180910390fd5b600073ffffffffffffffffffffffffffffffffffffffff168273ffffffffffffffffffffffffffffffffffffffff1603610c88576040517f08c379a0000000000000000000000000000000000000000000000000000000008152600401610c7f906119a5565b60405180910390fd5b610c93838383610efc565b600060065482610ca391906114ab565b90506000600760008673ffffffffffffffffffffffffffffffffffffffff1673ffffffffffffffffffffffffffffffffffffffff16815260200190815260200160002054905081811015610d2c576040517f08c379a0000000000000000000000000000000000000000000000000000000008152600401610d2390611a37565b60405180910390fd5b818103600760008773ffffffffffffffffffffffffffffffffffffffff1673ffffffffffffffffffffffffffffffffffffffff1681526020019081526020016000208190555081600760008673ffffffffffffffffffffffffffffffffffffffff1673ffffffffffffffffffffffffffffffffffffffff168152602001908152602001600020600082825401925050819055508373ffffffffffffffffffffffffffffffffffffffff168573ffffffffffffffffffffffffffffffffffffffff167fddf252ad1be2c89b69c2b068fc378daa952ba7f163c4a11628f55a4df523b3ef85604051610e1c9190611139565b60405180910390a3610e2f858585610f01565b5050505050565b6000600560009054906101000a900473ffffffffffffffffffffffffffffffffffffffff16905081600560006101000a81548173ffffffffffffffffffffffffffffffffffffffff021916908373ffffffffffffffffffffffffffffffffffffffff1602179055508173ffffffffffffffffffffffffffffffffffffffff168173ffffffffffffffffffffffffffffffffffffffff167f8be0079c531659141344cd1fd0a4f28419497f9722a3daafe3b4186f6b6457e060405160405180910390a35050565b505050565b505050565b600081519050919050565b600082825260208201905092915050565b60005b83811015610f40578082015181840152602081019050610f25565b60008484015250505050565b6000601f19601f8301169050919050565b6000610f6882610f06565b610f728185610f11565b9350610f82818560208601610f22565b610f8b81610f4c565b840191505092915050565b60006020820190508181036000830152610fb08184610f5d565b905092915050565b600080fd5b600073ffffffffffffffffffffffffffffffffffffffff82169050919050565b6000610fe882610fbd565b9050919050565b610ff881610fdd565b811461100357600080fd5b50565b60008135905061101581610fef565b92915050565b6000819050919050565b61102e8161101b565b811461103957600080fd5b50565b60008135905061104b81611025565b92915050565b6000806040838503121561106857611067610fb8565b5b600061107685828601611006565b92505060206110878582860161103c565b9150509250929050565b60008115159050919050565b6110a681611091565b82525050565b60006020820190506110c1600083018461109d565b92915050565b6000819050919050565b6110da816110c7565b81146110e557600080fd5b50565b6000813590506110f7816110d1565b92915050565b60006020828403121561111357611112610fb8565b5b6000611121848285016110e8565b91505092915050565b6111338161101b565b82525050565b600060208201905061114e600083018461112a565b92915050565b60008060006060848603121561116d5761116c610fb8565b5b600061117b86828701611006565b935050602061118c86828701611006565b925050604061119d8682870161103c565b9150509250925092565b600060ff82169050919050565b6111bd816111a7565b82525050565b60006020820190506111d860008301846111b4565b92915050565b6000602082840312156111f4576111f3610fb8565b5b600061120284828501611006565b91505092915050565b61121481610fdd565b82525050565b600060208201905061122f600083018461120b565b92915050565b60006020828403121561124b5761124a610fb8565b5b60006112598482850161103c565b91505092915050565b6000806040838503121561127957611278610fb8565b5b600061128785828601611006565b925050602061129885828601611006565b9150509250929050565b7f4e487b7100000000000000000000000000000000000000000000000000000000600052602260045260246000fd5b600060028204905060018216806112e957607f821691505b6020821081036112fc576112fb6112a2565b5b50919050565b7f50657263656e746167652063616e6e6f74206265203000000000000000000000600082015250565b6000611338601683610f11565b915061134382611302565b602082019050919050565b600060208201905081810360008301526113678161132b565b9050919050565b7f50657263656e746167652063616e6e6f74206265206c657373207468616e202d60008201527f3130300000000000000000000000000000000000000000000000000000000000602082015250565b60006113ca602383610f11565b91506113d58261136e565b604082019050919050565b600060208201905081810360008301526113f9816113bd565b9050919050565b7f4e487b7100000000000000000000000000000000000000000000000000000000600052601160045260246000fd5b600061143a826110c7565b91507f8000000000000000000000000000000000000000000000000000000000000000820361146c5761146b611400565b5b816000039050919050565b60006114828261101b565b915061148d8361101b565b92508282039050818111156114a5576114a4611400565b5b92915050565b60006114b68261101b565b91506114c18361101b565b92508282026114cf8161101b565b915082820484148315176114e6576114e5611400565b5b5092915050565b7f4e487b7100000000000000000000000000000000000000000000000000000000600052601260045260246000fd5b60006115278261101b565b91506115328361101b565b925082611542576115416114ed565b5b828204905092915050565b60006115588261101b565b91506115638361101b565b925082820190508082111561157b5761157a611400565b5b92915050565b7f45524332303a2064656372656173656420616c6c6f77616e63652062656c6f7760008201527f207a65726f000000000000000000000000000000000000000000000000000000602082015250565b60006115dd602583610f11565b91506115e882611581565b604082019050919050565b6000602082019050818103600083015261160c816115d0565b9050919050565b7f4f776e61626c653a206e6577206f776e657220697320746865207a65726f206160008201527f6464726573730000000000000000000000000000000000000000000000000000602082015250565b600061166f602683610f11565b915061167a82611613565b604082019050919050565b6000602082019050818103600083015261169e81611662565b9050919050565b7f45524332303a20617070726f76652066726f6d20746865207a65726f2061646460008201527f7265737300000000000000000000000000000000000000000000000000000000602082015250565b6000611701602483610f11565b915061170c826116a5565b604082019050919050565b60006020820190508181036000830152611730816116f4565b9050919050565b7f45524332303a20617070726f766520746f20746865207a65726f20616464726560008201527f7373000000000000000000000000000000000000000000000000000000000000602082015250565b6000611793602283610f11565b915061179e82611737565b604082019050919050565b600060208201905081810360008301526117c281611786565b9050919050565b7f4f776e61626c653a2063616c6c6572206973206e6f7420746865206f776e6572600082015250565b60006117ff602083610f11565b915061180a826117c9565b602082019050919050565b6000602082019050818103600083015261182e816117f2565b9050919050565b7f45524332303a20696e73756666696369656e7420616c6c6f77616e6365000000600082015250565b600061186b601d83610f11565b915061187682611835565b602082019050919050565b6000602082019050818103600083015261189a8161185e565b9050919050565b7f45524332303a207472616e736665722066726f6d20746865207a65726f20616460008201527f6472657373000000000000000000000000000000000000000000000000000000602082015250565b60006118fd602583610f11565b9150611908826118a1565b604082019050919050565b6000602082019050818103600083015261192c816118f0565b9050919050565b7f45524332303a207472616e7366657220746f20746865207a65726f206164647260008201527f6573730000000000000000000000000000000000000000000000000000000000602082015250565b600061198f602383610f11565b915061199a82611933565b604082019050919050565b600060208201905081810360008301526119be81611982565b9050919050565b7f45524332303a207472616e7366657220616d6f756e742065786365656473206260008201527f616c616e63650000000000000000000000000000000000000000000000000000602082015250565b6000611a21602683610f11565b9150611a2c826119c5565b604082019050919050565b60006020820190508181036000830152611a5081611a14565b905091905056fea264697066735822122096523aac0ad66c37529ea78b3fce587b8e0d46343346bd087c83abac5672312e64736f6c63430008120033",
  "linkReferences": {},
  "deployedLinkReferences": {}
}